:020000040000FA
:10000000803102288731F62FF800F401F5017008DD
:10001000F200F3017208F6007308F700781C142848
:100020007608F4077708F53D0130F635F70D890BB2
:1000300015280310F80C7808031D0E287508F10028
:100040007408F00008008C31452480318C3135244F
:100050008031EF302100CA00FE30CB004130EB0090
:100060006B08CC0045302000C3009C30C2004030FB
:10007000C1000030C0004430A9007F30A800C0306B
:10008000A7000030A60000308C31C52480317008F4
:100090002100EB007108EC00ED01EE016E08F700A5
:1000A0006D08F6006C08F5006B08F40000308E3126
:1000B000C926803177082000AD007608AC007508AD
:1000C000AB007408AA008231B722803120002908D1
:1000D000C7002808C6002708C5002608C4008531C7
:1000E000CA258031200043082100D00020004208AA
:1000F0002100CF00200041082100CE002000400850
:100100002100CD0041302100EB00EE30890B862824
:10011000EB0B8628000040302000C300A030C20056
:100120000030C1000030C0004430A9007F30A8007A
:10013000C030A7000030A60001308C31C5248031CA
:1001400070082100EB007108EC00ED01EE016E0873
:10015000F7006D08F6006C08F5006B08F40000303D
:100160008E31C926803177082000AD007608AC00BA
:100170007508AB007408AA008231B72280312000D4
:100180002908C7002808C6002708C5002608C4009B
:100190008531CA258031200043082100D400200089
:1001A00042082100D300200041082100D200200095
:1001B00040082100D10041302100EB00EE30890BD6
:1001C000DF28EB0BDF28000040302000C300A03008
:1001D000C2000030C1000030C0004430A9007F30B0
:1001E000A800C030A7000030A60002308C31C52422
:1001F000803170082100EB007108EC00ED01EE0188
:100200006E08F7006D08F6006C08F5006B08F40046
:1002100000308E31C926803177082000AD00760885
:10022000AC007508AB007408AA008231B722803197
:1002300020002908C7002808C6002708C50026088E
:10024000C4008531CA258031200043082100D80030
:10025000200042082100D700200041082100D600DC
:10026000200040082100D50041302100EB00EE3095
:10027000890B3829EB0B382900002100D9010E30F9
:10028000EB006B08F000CC308D31E325803121008C
:10029000EC006C08DA001130EB006B082000EF0076
:1002A000CA308D31BC25803103302100EC008A300A
:1002B000EB005530890B5A29EB0B5A29EC0B5A29C4
:1002C000003226282000C4002100A51B6B29FD3028
:1002D000A605FF30A7052508803A2000B60080302B
:1002E0003602031D762901302100240203187E29DD
:1002F00001302000C2000030C300862921002508FB
:100300002000C300210024082000C200210023088F
:100310002000C600210022082000C5002100261E62
:100320009629FE302000C507FF30C63D20002D086D
:10033000C7002E08C8002F08C9003008CA003108BD
:10034000CB003208CC003308CD003408CE001F307B
:10035000CF000030D0002100C901572AFF30200013
:10036000CF07FF30D03D0F304705D10000304805A2
:10037000D2005208803AB60080303602031DC229EE
:100380000A305102031CC82920005108573ECB29CE
:1003900020005108303ED1000030523DD2003508D7
:1003A000BF3EB600FF3003180030B7000030370200
:1003B0001A30031936020318DF290130E029003012
:1003C000B800B9013808BE003908BF003E083F0434
:1003D0000319162A20305104B60000305204B70029
:1003E00036089F3EB800FF30373DB9000030390273
:1003F0001A30031938020318FF290130002A00308F
:10040000BA00BB013A08C0003B08C10040084104E3
:100410000319162A5208F7005108F6008D313225CB
:10042000813177082000D2007608D1005108B6004B
:100430004F08AA3E8600870136088100FF30C207B8
:10044000FF30C33DFF30C507FF30C63D4730860053
:1004500000308700403FB600413FB700423FB80040
:10046000433FB900443FBA00453FBB00463FBC0094
:10047000473FBD0004302000BD36BC0CBB0CBA0C9D
:10048000B90CB80CB70CB60C890B3B2A20003D0800
:10049000CE003C08CD003B08CC003A08CB00390820
:1004A000CA003808C9003708C8003608C70020004D
:1004B0005008803AB60080303602031D612A0230AF
:1004C0004F02031C882A20004708480449044A04B4
:1004D0004B044C044D044E04031DAE294308803ADE
:1004E000B60080303602031D772A0130420203181D
:1004F000AE2920004608803AB60080303602031D3F
:10050000832A01304502031C882A2100A618AE293F
:100510002100261EA42AFF302000CF07FF30D03D47
:100520003508B6004F08AA3E8600870136088100CC
:10053000FF30CF07FF30D03D3030B6004F08AA3E25
:10054000860087013608810020004F08AA3EB600C9
:100550003608A4004608A6004508A50044088E31C8
:10056000792620002508AE002408AD0008002000F0
:100570002D088039AE002E08B7002D35AE002E08AC
:10058000BE00AC1B3E143E080319D42A3E0A031DCC
:10059000D12A0030AD000030AC000030AB0000309C
:1005A000AA00AC17AD01DC2A0030AD000030AC0071
:1005B0000030AB000030AA0029088039AE002E08B8
:1005C000B7062935AE002E08BF00A81B3F143F0810
:1005D0000319F82A3F0A031DF52A0030A90000304C
:1005E000A8000030A7000030A600A817A901002B22
:1005F0000030A9000030A8000030A7000030A6009D
:100600002908280427042604031D1F2B0030AD00F1
:100610000030AC000030AB000030AA008030AC04E9
:100620007F30AD043708AE002E08AD042D08A900B8
:100630002C08A8002B08A7002A08A60008003E08DE
:10064000031D2B2B0030A9000030A8000030A700AC
:100650000030A60008003E08AE00AF012F08B10030
:100660003F082E02B000031CB10330087F3EB800E3
:100670000030313DB9002D08B6002C08B5002B081C
:10068000B4002A08B3000030AD000030AC000030E8
:10069000AB000030AA000030BD000030BC000030CC
:1006A000BB000030BA00BF011A303F020318902B84
:1006B0003F080319722B0130B335B40DB50DB60DDB
:1006C000890B5C2B0130AA35AB0DAC0DAD0D890B40
:1006D000632BBD1B2A140130BA35BB0DBC0DBD0DFB
:1006E000890B6C2B29083602031D802B2808350244
:1006F000031D802B27083402031D802B260833029C
:10070000031C8B2B3D172608B3022708B43B28088F
:10071000B53B2908B63B0130AE002E08BF07542B6D
:100720003608350434043304031D3A14AC1BAD2BD6
:100730000130AA35AB0DAC0DAD0D890B992BBD1B4E
:100740002A140130BA35BB0DBC0DBD0D890BA22B8F
:10075000FF30B807FF30B93D962BBF01BD1FC62B38
:10076000FF303A05AE00FF303B05AF00FF303C05DF
:10077000B0007F303D05B100310830042F042E0455
:1007800003192A18C42BC62BBF01BF0A3F0803193F
:10079000EF2B0130AA070030AB3D0030AC3D0030FC
:1007A000AD3D2D1CEF2B2A08AE002B08AF002C0806
:1007B000B0002D08B1000130B200B137B00CAF0C61
:1007C000AE0CB20BDD2B3108AD003008AC002F08A9
:1007D000AB002E08AA000130B8070030B93D390837
:1007E000803AAE0080302E02031DF82BFF30380215
:1007F000031C072CFF302000B8000030B900003087
:10080000AD000030AC000030AB000030AA0020008A
:100810003908803AAE0080302E02031D112C0130C1
:10082000380203181F2C2000B801B9010030AD00B8
:100830000030AC000030AB000030AA00B70120004F
:100840003808AE002E08BE003E1C282CAC172C2CFD
:100850007F30AE002E08AC053E36AE002E08AD004F
:10086000122B2000E800530886008701403FD50086
:10087000413FD60055088400560885001200253AED
:10088000031DA72D530886008701013081074131E0
:100890000318810A2100A201A301A601A701FF30CC
:1008A000A400FF30A5002000E301E401732C210027
:1008B000261420005308860087010130810741314A
:1008C0000318810A732C2100A614592C2100261527
:1008D000592C2100A615592C21002616592C01301F
:1008E000E3000030E40063086404031D9C2C5308FB
:1008F00086008701403FD500413FD600550884005F
:10090000560885000008D700D8015808003A031996
:100910008A2C6F2C5708203A0319692C033A0319C3
:100920006C2C083A0319662C063A0319572C1D3A09
:100930000319632C6F2C732C2100261CA32CFD3073
:10094000A605FF30A7052000530886008701403F19
:10095000D500413FD6005508840056088500120096
:100960002A3A031DD12C53088600870101308107E4
:1009700041310318810A5408860087010108840068
:10098000850102308107003F2100A200013FA30042
:10099000A31F102D2614A209A309A20A0319A30A52
:1009A000102D530886008701403FF600413FF700B5
:1009B0008F315F27843177082100A3007608A200D9
:1009C000E92C530886008701013081074131031863
:1009D000810A2000530886008701403FD500413F2F
:1009E000D60055088400560885000008D03ED70080
:1009F000FF3003180030D800003058020A300319C5
:100A000057020318052D0130062D0030D900DA01F8
:100A10005908E5005A08E60065086604031DE12C44
:100A20002000530886008701403FD500413FD60093
:100A300055088400560885001200783A03192F2DB6
:100A4000530886008701403FD500413FD600550836
:100A50008400560885001200583A031D752D53086E
:100A600086008701403FD500413FD60055088400ED
:100A7000560885000008D7005708E700530886008D
:100A800087010130810741310318810A540886002B
:100A9000870101088400850102308107003FDB00E7
:100AA000013FDC00DD01DE01DF01E001E101E201E7
:100AB0005B08AD005C08AE005D08AF005E08B000EA
:100AC0005F08B1006008B2006108B3006208B400BA
:100AD0006708D5005508B5006808813162212000FB
:100AE0002E08D4002D08D300080053088600870183
:100AF000403FD500413FD600550884005608850088
:100B00001200253A031D9C2D5308860087010130F1
:100B1000810741310318810A2530F2000030F300CB
:100B20006808D5005508F4008E31442601302000B5
:100B3000D3000030D400080053088600870101303C
:100B4000810741310318810AD301D40108005308F9
:100B500086008701403FD500413FD60055088400FC
:100B6000560885000008D700D8015708F200580839
:100B7000F3006808D9005908F4008E314426843106
:100B80002000530886008701013081074131031896
:100B9000810A962D200043088039C8004808CD00FE
:100BA0004335C8004808D300C21B53145308031927
:100BB000E62D530A031DE42D0030C3000030C200AF
:100BC0000030C1000030C000C217EE2D0030C3005D
:100BD0000030C2000030C1000030C000470880393A
:100BE000C8004808CD064735C8004808D200C61BD3
:100BF000521452080319092E520A031D072E003001
:100C0000C7000030C6000030C5000030C400C61761
:100C1000112E0030C7000030C6000030C500003083
:100C2000C4005208031D5308031D1F2E0030C300CB
:100C30000030C2000030C1000030C0000800400891
:100C4000C8004808F000460880310420853171084A
:100C50002000D9007008D8005808C800C901CA018E
:100C6000CB014B08D1004A08D0004908CF00480802
:100C7000CE005908C800C901CA01CB014B08D700F2
:100C80004A08D6004908D5004808D4004108C800E1
:100C90004808F000450880310420853171082000A3
:100CA000D9007008D8005808C800C901CA01CB0192
:100CB0004808CE074908CF3D4A08D03D4B08D13DF2
:100CC0005908C800C901CA01CB014808D40749081E
:100CD000D53D4A08D63D4B08D73D4208C8004808D4
:100CE000F000440880310420853171082000D900CB
:100CF0007008D8005808C800C901CA01CB014808CB
:100D0000CE074908CF3D4A08D03D4B08D13D590890
:100D1000C800C901CA01CB014808D4074908D53D1C
:100D20004A08D63D4B08D73D0830CE35CF0DD00D03
:100D3000D10D890B952E4108C8004808F0004408E1
:100D400080310420853171082000D9007008D80056
:100D50005808CE075908CF3D0030D03DD13D40085E
:100D6000C8004808F000450880310420853171082A
:100D70002000D9007008D8005808CE075908CF3D88
:100D80000030D03DD13D0830CE35CF0DD00DD10D46
:100D9000890BC42E4008C8004808F0004408803180
:100DA0000420853171082000D9007008D800580847
:100DB000CE075908CF3D0030D03DD13D4108C80095
:100DC0004808F00046088031042085317108200071
:100DD000D9007008D8005808D4075908D53D00300C
:100DE000D63DD73D4208C8004808F000450880318C
:100DF0000420853171082000D9007008D8005808F7
:100E0000D4075908D53D0030D63DD73D4208C8002B
:100E10004808F00046088031042085317108200020
:100E2000D9007008D8005808C8005908C900CA017C
:100E3000CB010830C835C90DCA0DCB0D890B1A2F4F
:100E40004808D4074908D53D4A08D63D4B08D73D48
:100E50004E08C8004F08C9005008CA005108CB000E
:100E60001830CB36CA0CC90CC80C890B312F480876
:100E7000D4074908D53D4A08D63D4B08D73D083030
:100E8000CE35CF0DD00DD10D890B402F5308520711
:100E9000C800C901C90D4808823ED800FF30493D4D
:100EA000D900D61B682F0130D435D50DD60DD70DFE
:100EB000890B542FD11B54140130CE35CF0DD00DDA
:100EC000D10D890B5D2FFF30D807FF30D93D512F51
:100ED000D201D11F812FFF304E05C800FF304F05D2
:100EE000C900FF305005CA007F305105CB004B08C8
:100EF0004A0449044804031954187F2F812FD20152
:100F0000D20A52080319AA2F0130D4070030D53D68
:100F10000030D63D0030D73D571CAA2F5408C800DA
:100F20005508C9005608CA005708CB000130CC004C
:100F3000CB37CA0CC90CC80CCC0B982F4B08D70068
:100F40004A08D6004908D5004808D4000130D8071F
:100F50000030D93D5908803AC80080304802031D4E
:100F6000B32FFF305802031CBF2F7F302000D70063
:100F70008030D6000030D5000030D400E92F2000AA
:100F80005908803AC80080304802031DC92F01303B
:100F900058020318D62F00302000D7000030D600AA
:100FA0000030D5000030D400CD01E92F20005808D2
:100FB000C8004808D300FF30D405FF30D5057F3086
:100FC000D6050030D7055318D6175336C800480841
:100FD000D7004D08C8004808D7045708C300560872
:100FE000C2005508C1005408C0000800A0308400A9
:100FF000003085003B308C312824200080312328AC
:10181A001630210097000800F10071088C313D2430
:10182A00080071082200A1007008A00008007108D1
:10183A002200A5007008A400080071082200A30075
:10184A007008A2000800640080010131890B292C6C
:10185A0000343830210099009801220096010800CE
:10186A00013021009D00A0309E009B019C010800D0
:10187A00F0002000111E3E2C700823009A00080078
:10188A008D3175258C318C312E248C318C310D247F
:10189A008C318C3135248C318D3153250800E03060
:1018AA002000EE006E082100E4005F082000EA0034
:1018BA0021005E082000E900E430EE006E08EB002B
:1018CA0000308E31122608007008D03EF200FF3038
:1018DA00713DF300003073020A30031972020318D3
:1018EA00782C0130792C0030F400F5017408F000EE
:1018FA007508F10008007008BF3EF200FF30713D24
:10190A00F300003073021A300319720203188F2C85
:10191A000130902C0030F400F5017408F0007508CD
:10192A00F1000800F4007408F2007208F300740869
:10193A008600870101080319A72C0130F2007208FA
:10194A00F4079C2C73087402F000F101F01BF103F8
:10195A00080070089F3EF200FF30713DF30000302E
:10196A0073021A30031972020318BD2C0130BE2CFF
:10197A000030F400F5017408F0007508F100080061
:10198A00F3007308F200F20DF20D21001D08720631
:10199A00833972069D001D140830890BD22C000071
:1019AA0021009D149D18D72C1C08F1001B08F0007B
:1019BA000800F401F501701CE62C7208F40773089C
:1019CA00F53D0130F235F30D890BE72C0130F13684
:1019DA00F00C890BEC2C70087104031DE02C7508BF
:1019EA00F1007408F0000800F401F40A20307006CF
:1019FA00710403190D2D7008F73EF200FF30713D96
:101A0A00F300003073020530031972020318F4015F
:101A1A007408F200F3017208F0007308F10008007C
:101A2A0020307004F20000307104F30072089F3E07
:101A3A00F400FF30733DF500003075021A300319C7
:101A4A00740203182A2D01302B2D0030F600F701FD
:101A5A007608F0007708F100080076089F3EF80043
:101A6A00FF30773DF900003079021A300319780205
:101A7A000318412D0130422D0030FA00FB017A088B
:101A8A00FC007B08FD007C087D04031908005F3018
:101A9A007605F60000307705F700080008302300C5
:101AAA009F0080309D0024309E0008309B00023049
:101ABA009C000030F0000030F1008C311C248D3184
:101ACA000030F0000030F1008C3122248D310030DA
:101ADA00F0000030F1008C3116242100A901080021
:101AEA00220090018F018C018D018E010F3021009F
:101AFA009000FF308C00FF308D00BF308E00FF3029
:101B0A008F00FF3023008F003F308D000730900098
:101B1A003F308C00240090018D012100951722008E
:101B2A009D0108002000A300A101A20121082307AA
:101B3A00FB007B08860087010108FC007C08A000E6
:101B4A002008031908002008FB00FC017B08F200AA
:101B5A007C08F3007A08FD007D08F4008E314426E3
:101B6A008D3101302000A1070030A23D9B2D2100BC
:101B7A00E9006908E5006508E800EA0120006F0845
:101B8A0021006A02031808000030DE009030DF00EE
:101B9A006A086807E5006508860087010108E6000B
:101BAA00E7016608E0006708E1008C3154248D31B2
:101BBA0001302100E5006508EA07C32DF300730828
:101BCA00F1007108F4007408860087010108F10029
:101BDA007108F600F5017008FF3EF100FF300318A6
:101BEA000030F2007208803A803C031DFE2D710815
:101BFA0075020318102E75087407F100710A860021
:101C0A00870101087606F2007208F6000130F10039
:101C1A007108F507F02D760808002100DB00200086
:101C2A006A082100DD00200069082100DC00A0010B
:101C3A00A1015C0884005D088500120003193C2E8E
:101C4A00DC302000EC006C08D3006B08ED006D0856
:101C5A00D40021005B08843131248E3120005308DE
:101C6A002100A007200054082100A13D1E2E2108B2
:101C7A002000EA00210020082000E900080074087A
:101C8A00031D7408031D4D2E72088C31112408009F
:101C9A007408033E86008701160001040319702E9A
:101CAA007408033E86008701403FF500413FF60075
:101CBA00740A86008701403FF700413FF800780820
:101CCA00803AF9007608803A7902031D6E2E75086B
:101CDA00770203180800740A860087010130810719
:101CEA0041310318810A08002000AC002100261C9B
:101CFA00872E20002C08A7002708FA0024088D3117
:101D0A0097258E312000A61B8F2E2608AB002508AA
:101D1A00AA00912EAA01AB01A801A9012908803ABB
:101D2A00A7002B08803A2702031D9D2E2A082802A5
:101D3A000318B12E2030F2000030F30020002C08E6
:101D4A00A7002708F4008E3144268E310130200086
:101D5A00A8070030A93D932E21002618BD2E200089
:101D6A002C08A7002708FA0024088D3197258E3100
:101D7A00200024088C31972420002A087007A40028
:101D8A002B08713DA50008002000A0002008031DB3
:101D9A00F71FDF2E7409A2007509A3007609A400B3
:101DAA007709A500A20A0319A30A0319A40A0319A9
:101DBA00A50AE72E7708A5007608A4007508A300EF
:101DCA007408A2007708760475047404031DF62EBD
:101DDA000030F7000030F6000030F5000030F40063
:101DEA0008009630F8007808A100FE30250503198E
:101DFA001D2F0130F8007808A1070130A536A40C80
:101E0A00A30CA20C890B032FFA2E0130F8007808D4
:101E1A00A1070130A2070030A33D0030A43D0030E5
:101E2A00A53D0130A536A40CA30CA20C890B172FD3
:101E3A00FF30250503192F2F0A2F02302102031C18
:101E4A00312F0130A1020130A235A30DA40DA50D39
:101E5A00890B292FA41F222F21183B2FFF30A205FF
:101E6A00FF30A3057F30A405FF30A5050310A10CA0
:101E7A002108F800F901FA01FB011830F835F90DCB
:101E8A00FA0DFB0D890B432F7808A2047908A304E5
:101E9A007A08A4047B08A5042008031DF71F562FFF
:101EAA00A5172508F7002408F6002308F5002208DC
:101EBA00F40008002000A701A801A001A101A601C1
:101ECA00A60A76088400770885001200203A0319CA
:101EDA00802F76088400770885000008F73EF8000E
:101EEA00FF3003180030F900003079020530031979
:101EFA0078020318A6012608F800F9017808A2005A
:101F0A007908A300220823040319952F0130F60744
:101F1A000030F73D642F0130A0000030A100C82F27
:101F2A0076088400770885000008F800F901790826
:101F3A00003A0319A12FCC2F78082B3A0319C82F7E
:101F4A00063A0319902FCC2F76088400770885006B
:101F5A000008F8002808F1002708F0000A30F2000B
:101F6A000030F3008C31DE248F317108FA007808D2
:101F7A007002F900031CFA037908303E2000A7001A
:101F8A0000307A3DA8000130F6070030F73D7608A8
:101F9A008400770885000008D03EF800FF30031857
:101FAA000030F900003079020A3003197802031868
:101FBA00E02F0130E12F0030FA00FB017A08A4007B
:101FCA007B08A50024082504031DA92F2008210445
:101FDA00031DFB2F2709F8002809F900F80A03193D
:101FEA00F90A7808F6007908F70008002808F700C7
:101FFA002708F600080025343034323458340034C7
:020000040001F9
:04000E00E2FFFFDE30
:00000001FF
